{
  "transactions": [
    {
      "hash": "0x4773bfec3d8c54a1908a2f0b465aa9c88e0f0f82550c257418844ff0f2f2fc17",
      "transactionType": "CALL",
      "contractName": null,
      "contractAddress": "0x29ecb1e27a15037442cc97256f05f45f55ef10d0",
      "function": "setController(address)",
      "arguments": [
        "0xa76DD3C7951ABA5F8670db0Fb7D97a47B0eaBEA7"
      ],
      "transaction": {
        "from": "0x5ad3f8df47656aa57ca047d7f5bd69d2e32b8f04",
        "to": "0x29ecb1e27a15037442cc97256f05f45f55ef10d0",
        "gas": "0x9ce0",
        "value": "0x0",
        "input": "0x92eefe9b000000000000000000000000a76dd3c7951aba5f8670db0fb7d97a47b0eabea7",
        "nonce": "0xf",
        "chainId": "0x3e6"
      },
      "additionalContracts": [],
      "isFixedGasLimit": false
    },
    {
      "hash": "0x85d28f0ab52e7ba26d152d6a4d7970aafe059e7cd4da34380639f05cfbef9f9e",
      "transactionType": "CALL",
      "contractName": null,
      "contractAddress": "0x29ecb1e27a15037442cc97256f05f45f55ef10d0",
      "function": "setMetadataProvider(address)",
      "arguments": [
        "0x231880c690be45522FeF61465d6c0f1284BAe74E"
      ],
      "transaction": {
        "from": "0x5ad3f8df47656aa57ca047d7f5bd69d2e32b8f04",
        "to": "0x29ecb1e27a15037442cc97256f05f45f55ef10d0",
        "gas": "0xf8e8",
        "value": "0x0",
        "input": "0x64b09402000000000000000000000000231880c690be45522fef61465d6c0f1284bae74e",
        "nonce": "0x10",
        "chainId": "0x3e6"
      },
      "additionalContracts": [],
      "isFixedGasLimit": false
    }
  ],
  "receipts": [
    {
      "status": "0x1",
      "cumulativeGasUsed": "0x7194",
      "logs": [],
      "logsBloom": "0x00000000000000000000000000000000000000000000000000000000000000000000000000000000000000000000000000000000000000000000000000000000000000000000000000000000000000000000000000000000000000000000000000000000000000000000000000000000000000000000000000000000000000000000000000000000000000000000000000000000000000000000000000000000000000000000000000000000000000000000000000000000000000000000000000000000000000000000000000000000000000000000000000000000000000000000000000000000000000000000000000000000000000000000000000000000",
      "type": "0x2",
      "transactionHash": "0x4773bfec3d8c54a1908a2f0b465aa9c88e0f0f82550c257418844ff0f2f2fc17",
      "transactionIndex": "0x0",
      "blockHash": "0xefd3d838b622cb235f981300ccfb7b0b57704a1b4d0870c57c5af29fd613fd09",
      "blockNumber": "0x14a4779",
      "gasUsed": "0x7194",
      "effectiveGasPrice": "0x5f5e101",
      "from": "0x5ad3f8df47656aa57ca047d7f5bd69d2e32b8f04",
      "to": "0x29ecb1e27a15037442cc97256f05f45f55ef10d0",
      "contractAddress": null
    },
    {
      "status": "0x1",
      "cumulativeGasUsed": "0x125c9",
      "logs": [],
      "logsBloom": "0x00000000000000000000000000000000000000000000000000000000000000000000000000000000000000000000000000000000000000000000000000000000000000000000000000000000000000000000000000000000000000000000000000000000000000000000000000000000000000000000000000000000000000000000000000000000000000000000000000000000000000000000000000000000000000000000000000000000000000000000000000000000000000000000000000000000000000000000000000000000000000000000000000000000000000000000000000000000000000000000000000000000000000000000000000000000",
      "type": "0x2",
      "transactionHash": "0x85d28f0ab52e7ba26d152d6a4d7970aafe059e7cd4da34380639f05cfbef9f9e",
      "transactionIndex": "0x1",
      "blockHash": "0xefd3d838b622cb235f981300ccfb7b0b57704a1b4d0870c57c5af29fd613fd09",
      "blockNumber": "0x14a4779",
      "gasUsed": "0xb435",
      "effectiveGasPrice": "0x5f5e101",
      "from": "0x5ad3f8df47656aa57ca047d7f5bd69d2e32b8f04",
      "to": "0x29ecb1e27a15037442cc97256f05f45f55ef10d0",
      "contractAddress": null
    }
  ],
  "libraries": [],
  "pending": [],
  "returns": {},
  "timestamp": 1746131520,
  "chain": 998,
  "commit": "3ff86b5"
}