{
  "transactions": [
    {
      "hash": "0x3e061bb417e0fa457eefe45a6d5015c8b89fd5590257dd32c02ee7562b9db468",
      "transactionType": "CALL",
      "contractName": null,
      "contractAddress": "0xa76dd3c7951aba5f8670db0fb7d97a47b0eabea7",
      "function": "registerReserved(string,uint256)",
      "arguments": [
        "mydomain",
        "31536000"
      ],
      "transaction": {
        "from": "0x5ad3f8df47656aa57ca047d7f5bd69d2e32b8f04",
        "to": "0xa76dd3c7951aba5f8670db0fb7d97a47b0eabea7",
        "gas": "0x31efc",
        "value": "0xe35fa931a0000",
        "input": "0xcb5a7c5400000000000000000000000000000000000000000000000000000000000000400000000000000000000000000000000000000000000000000000000001e1338000000000000000000000000000000000000000000000000000000000000000086d79646f6d61696e000000000000000000000000000000000000000000000000",
        "nonce": "0x17",
        "chainId": "0x3e6"
      },
      "additionalContracts": [],
      "isFixedGasLimit": false
    }
  ],
  "receipts": [
    {
      "status": "0x1",
      "cumulativeGasUsed": "0x24274",
      "logs": [
        {
          "address": "0x29ecb1e27a15037442cc97256f05f45f55ef10d0",
          "topics": [
            "0xddf252ad1be2c89b69c2b068fc378daa952ba7f163c4a11628f55a4df523b3ef",
            "0x0000000000000000000000000000000000000000000000000000000000000000",
            "0x0000000000000000000000005ad3f8df47656aa57ca047d7f5bd69d2e32b8f04",
            "0xa51ad4f43edd0d03687b23af89547e9775385a0eee58e7da17e317fdce548668"
          ],
          "data": "0x",
          "blockHash": "0x9663fe611e7b2e13ebfdd5a6512d91d1d9a15a8584938dc4b5fb8944bfaba214",
          "blockNumber": "0x14a4d49",
          "blockTimestamp": "0x6813e580",
          "transactionHash": "0x3e061bb417e0fa457eefe45a6d5015c8b89fd5590257dd32c02ee7562b9db468",
          "transactionIndex": "0x0",
          "logIndex": "0x0",
          "removed": false
        },
        {
          "address": "0x29ecb1e27a15037442cc97256f05f45f55ef10d0",
          "topics": [
            "0xb3d987963d01b2f68493b4bdb130988f157ea43070d4ad840fee0466ed9370d9",
            "0xa51ad4f43edd0d03687b23af89547e9775385a0eee58e7da17e317fdce548668",
            "0x0000000000000000000000005ad3f8df47656aa57ca047d7f5bd69d2e32b8f04"
          ],
          "data": "0x0000000000000000000000000000000000000000000000000000000069f51900",
          "blockHash": "0x9663fe611e7b2e13ebfdd5a6512d91d1d9a15a8584938dc4b5fb8944bfaba214",
          "blockNumber": "0x14a4d49",
          "blockTimestamp": "0x6813e580",
          "transactionHash": "0x3e061bb417e0fa457eefe45a6d5015c8b89fd5590257dd32c02ee7562b9db468",
          "transactionIndex": "0x0",
          "logIndex": "0x1",
          "removed": false
        },
        {
          "address": "0xa76dd3c7951aba5f8670db0fb7d97a47b0eabea7",
          "topics": [
            "0x8034d8fda3d279e347445354cfc5c28522ccec743d5bf18f0d015952e142f553"
          ],
          "data": "0x00000000000000000000000000000000000000000000000000000000000000600000000000000000000000005ad3f8df47656aa57ca047d7f5bd69d2e32b8f040000000000000000000000000000000000000000000000000000000001e1338000000000000000000000000000000000000000000000000000000000000000086d79646f6d61696e000000000000000000000000000000000000000000000000",
          "blockHash": "0x9663fe611e7b2e13ebfdd5a6512d91d1d9a15a8584938dc4b5fb8944bfaba214",
          "blockNumber": "0x14a4d49",
          "blockTimestamp": "0x6813e580",
          "transactionHash": "0x3e061bb417e0fa457eefe45a6d5015c8b89fd5590257dd32c02ee7562b9db468",
          "transactionIndex": "0x0",
          "logIndex": "0x2",
          "removed": false
        },
        {
          "address": "0xa76dd3c7951aba5f8670db0fb7d97a47b0eabea7",
          "topics": [
            "0x27708016161f21df5a88a54264eed7ce7344b062c77faa396229f8ceb5983421",
            "0x2757c40866c0f291976b8dfc265fdaac51b2b88f0741243c78feff39ecdfbf9d"
          ],
          "data": "0x",
          "blockHash": "0x9663fe611e7b2e13ebfdd5a6512d91d1d9a15a8584938dc4b5fb8944bfaba214",
          "blockNumber": "0x14a4d49",
          "blockTimestamp": "0x6813e580",
          "transactionHash": "0x3e061bb417e0fa457eefe45a6d5015c8b89fd5590257dd32c02ee7562b9db468",
          "transactionIndex": "0x0",
          "logIndex": "0x3",
          "removed": false
        }
      ],
      "logsBloom": "0x00040000000000000000000000000000000202000000800000000000000000000000000000000000000000100000808000000000000000000000000000900000000000000000000000000008000142000000000000001000000000000000000000000000020000008000000000000802000000000000000000000010000000000000000000000000002008000000000000000000000000000000000040000000000000000000000000000010000000000000000000000000000400000000000000000002000000000000000800000200000004000000000000000000000020000010000000000000000000000000000000000000000000000000000000000000",
      "type": "0x2",
      "transactionHash": "0x3e061bb417e0fa457eefe45a6d5015c8b89fd5590257dd32c02ee7562b9db468",
      "transactionIndex": "0x0",
      "blockHash": "0x9663fe611e7b2e13ebfdd5a6512d91d1d9a15a8584938dc4b5fb8944bfaba214",
      "blockNumber": "0x14a4d49",
      "gasUsed": "0x24274",
      "effectiveGasPrice": "0x5f5e101",
      "from": "0x5ad3f8df47656aa57ca047d7f5bd69d2e32b8f04",
      "to": "0xa76dd3c7951aba5f8670db0fb7d97a47b0eabea7",
      "contractAddress": null
    }
  ],
  "libraries": [],
  "pending": [],
  "returns": {},
  "timestamp": 1746134400,
  "chain": 998,
  "commit": "3ff86b5"
}