{
  "transactions": [
    {
      "hash": "0xf90ca0a3d8de9cfce2c509f0f090f514dc2d05e1209babaeb543583bea14e314",
      "transactionType": "CALL",
      "contractName": null,
      "contractAddress": "0xa76dd3c7951aba5f8670db0fb7d97a47b0eabea7",
      "function": "setReservation(string,address)",
      "arguments": [
        "mydomain",
        "0x5aD3f8df47656AA57Ca047d7f5bD69d2E32B8F04"
      ],
      "transaction": {
        "from": "0x5ad3f8df47656aa57ca047d7f5bd69d2e32b8f04",
        "to": "0xa76dd3c7951aba5f8670db0fb7d97a47b0eabea7",
        "gas": "0x9b95",
        "value": "0x0",
        "input": "0x91101b7800000000000000000000000000000000000000000000000000000000000000400000000000000000000000005ad3f8df47656aa57ca047d7f5bd69d2e32b8f0400000000000000000000000000000000000000000000000000000000000000086d79646f6d61696e000000000000000000000000000000000000000000000000",
        "nonce": "0x19",
        "chainId": "0x3e6"
      },
      "additionalContracts": [],
      "isFixedGasLimit": false
    }
  ],
  "receipts": [
    {
      "status": "0x1",
      "cumulativeGasUsed": "0x70a4",
      "logs": [
        {
          "address": "0xa76dd3c7951aba5f8670db0fb7d97a47b0eabea7",
          "topics": [
            "0xccfd1e8567bc1749489631ff7b34c5d322a22795659e114ae37dc021099de4e0",
            "0x2757c40866c0f291976b8dfc265fdaac51b2b88f0741243c78feff39ecdfbf9d",
            "0x0000000000000000000000005ad3f8df47656aa57ca047d7f5bd69d2e32b8f04"
          ],
          "data": "0x",
          "blockHash": "0xff99b364fac74690e2ac50d647a201f9aa7eeb08d9c5b4cf7668ad5c4c1f2faf",
          "blockNumber": "0x14a4e9e",
          "blockTimestamp": "0x6813e814",
          "transactionHash": "0xf90ca0a3d8de9cfce2c509f0f090f514dc2d05e1209babaeb543583bea14e314",
          "transactionIndex": "0x0",
          "logIndex": "0x0",
          "removed": false
        }
      ],
      "logsBloom": "0x00000000000000000000000000000080000202000000000000000000000000000000000000000000000000100000008000000000000000000000000000000000000000000000000000000000000002000000000000000000000000000000000000000000000000000000000000000000000000000000000000000000000000000000000000000000000008000000000000000000000000000000000000000000000000000000000000000010000000000000000000000001000400000000000000000000000000000000000000000000000004000000000000000000000000000000000000000000000000000000000004000000000000000000000000000000",
      "type": "0x2",
      "transactionHash": "0xf90ca0a3d8de9cfce2c509f0f090f514dc2d05e1209babaeb543583bea14e314",
      "transactionIndex": "0x0",
      "blockHash": "0xff99b364fac74690e2ac50d647a201f9aa7eeb08d9c5b4cf7668ad5c4c1f2faf",
      "blockNumber": "0x14a4e9e",
      "gasUsed": "0x70a4",
      "effectiveGasPrice": "0x5f5e101",
      "from": "0x5ad3f8df47656aa57ca047d7f5bd69d2e32b8f04",
      "to": "0xa76dd3c7951aba5f8670db0fb7d97a47b0eabea7",
      "contractAddress": null
    }
  ],
  "libraries": [],
  "pending": [],
  "returns": {},
  "timestamp": 1746135060,
  "chain": 998,
  "commit": "3ff86b5"
}