{
  "transactions": [
    {
      "hash": "0x0d4a8b959d65731f44a69f10c6d90280ddeca888aa611289b500206e383ddfb7",
      "transactionType": "CALL",
      "contractName": null,
      "contractAddress": "0xa76dd3c7951aba5f8670db0fb7d97a47b0eabea7",
      "function": "setReservation(string,address)",
      "arguments": [
        "foobar",
        "0x5aD3f8df47656AA57Ca047d7f5bD69d2E32B8F04"
      ],
      "transaction": {
        "from": "0x5ad3f8df47656aa57ca047d7f5bd69d2e32b8f04",
        "to": "0xa76dd3c7951aba5f8670db0fb7d97a47b0eabea7",
        "gas": "0x106d2",
        "value": "0x0",
        "input": "0x91101b7800000000000000000000000000000000000000000000000000000000000000400000000000000000000000005ad3f8df47656aa57ca047d7f5bd69d2e32b8f040000000000000000000000000000000000000000000000000000000000000006666f6f6261720000000000000000000000000000000000000000000000000000",
        "nonce": "0x1a",
        "chainId": "0x3e6"
      },
      "additionalContracts": [],
      "isFixedGasLimit": false
    }
  ],
  "receipts": [
    {
      "status": "0x1",
      "cumulativeGasUsed": "0xbe48",
      "logs": [
        {
          "address": "0xa76dd3c7951aba5f8670db0fb7d97a47b0eabea7",
          "topics": [
            "0xccfd1e8567bc1749489631ff7b34c5d322a22795659e114ae37dc021099de4e0",
            "0x38d18acb67d25c8bb9942764b62f18e17054f66a817bd4295423adf9ed98873e",
            "0x0000000000000000000000005ad3f8df47656aa57ca047d7f5bd69d2e32b8f04"
          ],
          "data": "0x",
          "blockHash": "0x4d08df3c87fabf7764f1f5a30d1de8f58a95b19b1700cf1b8e8120ea45a07fa1",
          "blockNumber": "0x14a4f1a",
          "blockTimestamp": "0x6813e904",
          "transactionHash": "0x0d4a8b959d65731f44a69f10c6d90280ddeca888aa611289b500206e383ddfb7",
          "transactionIndex": "0x0",
          "logIndex": "0x0",
          "removed": false
        }
      ],
      "logsBloom": "0x00004000000000000000000000000080000002000000000000000000000000000000000000000000000000100000008000000000000000000000000000000000000000000000000000000000000000000000000000000000000000000000000000000000000000000000000000000000000000000000000000000010000000000000000000000000000000000000000000000000000000000000000000000000000000000000000000000010000000000000000000000001000400000000000000000000000000000000000000000000000004000000000000020000000000000000000000000000000000000000000004000000000000000000000000000000",
      "type": "0x2",
      "transactionHash": "0x0d4a8b959d65731f44a69f10c6d90280ddeca888aa611289b500206e383ddfb7",
      "transactionIndex": "0x0",
      "blockHash": "0x4d08df3c87fabf7764f1f5a30d1de8f58a95b19b1700cf1b8e8120ea45a07fa1",
      "blockNumber": "0x14a4f1a",
      "gasUsed": "0xbe48",
      "effectiveGasPrice": "0x5f5e101",
      "from": "0x5ad3f8df47656aa57ca047d7f5bd69d2e32b8f04",
      "to": "0xa76dd3c7951aba5f8670db0fb7d97a47b0eabea7",
      "contractAddress": null
    }
  ],
  "libraries": [],
  "pending": [],
  "returns": {},
  "timestamp": 1746135301,
  "chain": 998,
  "commit": "3ff86b5"
}